{
	"contracts/vending_machine.sol": {
		"vendingmachine": {
			"abi": [
				{
					"inputs": [],
					"stateMutability": "nonpayable",
					"type": "constructor"
				},
				{
					"inputs": [
						{
							"internalType": "address",
							"name": "",
							"type": "address"
						}
					],
					"name": "donutBalances",
					"outputs": [
						{
							"internalType": "uint256",
							"name": "",
							"type": "uint256"
						}
					],
					"stateMutability": "view",
					"type": "function"
				},
				{
					"inputs": [],
					"name": "getvendingmachinebalance",
					"outputs": [
						{
							"internalType": "uint256",
							"name": "",
							"type": "uint256"
						}
					],
					"stateMutability": "view",
					"type": "function"
				},
				{
					"inputs": [],
					"name": "owner",
					"outputs": [
						{
							"internalType": "address",
							"name": "",
							"type": "address"
						}
					],
					"stateMutability": "view",
					"type": "function"
				},
				{
					"inputs": [
						{
							"internalType": "uint256",
							"name": "amount",
							"type": "uint256"
						}
					],
					"name": "purchase",
					"outputs": [],
					"stateMutability": "payable",
					"type": "function"
				},
				{
					"inputs": [
						{
							"internalType": "uint256",
							"name": "amount",
							"type": "uint256"
						}
					],
					"name": "restock",
					"outputs": [],
					"stateMutability": "nonpayable",
					"type": "function"
				}
			],
			"devdoc": {
				"kind": "dev",
				"methods": {},
				"version": 1
			},
			"evm": {
				"assembly": "    /* \"contracts/vending_machine.sol\":60:936  contract vendingmachine{... */\n  mstore(0x40, 0x80)\n    /* \"contracts/vending_machine.sol\":171:264  constructor(){... */\n  callvalue\n  dup1\n  iszero\n  tag_1\n  jumpi\n  0x00\n  dup1\n  revert\ntag_1:\n  pop\n    /* \"contracts/vending_machine.sol\":203:213  msg.sender */\n  caller\n    /* \"contracts/vending_machine.sol\":195:200  owner */\n  0x00\n  dup1\n    /* \"contracts/vending_machine.sol\":195:213  owner = msg.sender */\n  0x0100\n  exp\n  dup2\n  sload\n  dup2\n  0xffffffffffffffffffffffffffffffffffffffff\n  mul\n  not\n  and\n  swap1\n  dup4\n  0xffffffffffffffffffffffffffffffffffffffff\n  and\n  mul\n  or\n  swap1\n  sstore\n  pop\n    /* \"contracts/vending_machine.sol\":253:256  100 */\n  0x64\n    /* \"contracts/vending_machine.sol\":224:237  donutBalances */\n  0x01\n    /* \"contracts/vending_machine.sol\":224:252  donutBalances[address(this)] */\n  0x00\n    /* \"contracts/vending_machine.sol\":246:250  this */\n  address\n    /* \"contracts/vending_machine.sol\":224:252  donutBalances[address(this)] */\n  0xffffffffffffffffffffffffffffffffffffffff\n  and\n  0xffffffffffffffffffffffffffffffffffffffff\n  and\n  dup2\n  mstore\n  0x20\n  add\n  swap1\n  dup2\n  mstore\n  0x20\n  add\n  0x00\n  keccak256\n    /* \"contracts/vending_machine.sol\":224:256  donutBalances[address(this)]=100 */\n  dup2\n  swap1\n  sstore\n  pop\n    /* \"contracts/vending_machine.sol\":60:936  contract vendingmachine{... */\n  dataSize(sub_0)\n  dup1\n  dataOffset(sub_0)\n  0x00\n  codecopy\n  0x00\n  return\nstop\n\nsub_0: assembly {\n        /* \"contracts/vending_machine.sol\":60:936  contract vendingmachine{... */\n      mstore(0x40, 0x80)\n      jumpi(tag_1, lt(calldatasize, 0x04))\n      shr(0xe0, calldataload(0x00))\n      dup1\n      0x4095d77d\n      eq\n      tag_2\n      jumpi\n      dup1\n      0x8da5cb5b\n      eq\n      tag_3\n      jumpi\n      dup1\n      0x9a020d8a\n      eq\n      tag_4\n      jumpi\n      dup1\n      0xc21a702a\n      eq\n      tag_5\n      jumpi\n      dup1\n      0xefef39a1\n      eq\n      tag_6\n      jumpi\n    tag_1:\n      0x00\n      dup1\n      revert\n        /* \"contracts/vending_machine.sol\":270:386  function getvendingmachinebalance()public view returns  (uint){... */\n    tag_2:\n      callvalue\n      dup1\n      iszero\n      tag_7\n      jumpi\n      0x00\n      dup1\n      revert\n    tag_7:\n      pop\n      tag_8\n      tag_9\n      jump\t// in\n    tag_8:\n      mload(0x40)\n      tag_10\n      swap2\n      swap1\n      tag_11\n      jump\t// in\n    tag_10:\n      mload(0x40)\n      dup1\n      swap2\n      sub\n      swap1\n      return\n        /* \"contracts/vending_machine.sol\":90:110  address public owner */\n    tag_3:\n      callvalue\n      dup1\n      iszero\n      tag_12\n      jumpi\n      0x00\n      dup1\n      revert\n    tag_12:\n      pop\n      tag_13\n      tag_14\n      jump\t// in\n    tag_13:\n      mload(0x40)\n      tag_15\n      swap2\n      swap1\n      tag_16\n      jump\t// in\n    tag_15:\n      mload(0x40)\n      dup1\n      swap2\n      sub\n      swap1\n      return\n        /* \"contracts/vending_machine.sol\":117:162  mapping (address => uint)public donutBalances */\n    tag_4:\n      callvalue\n      dup1\n      iszero\n      tag_17\n      jumpi\n      0x00\n      dup1\n      revert\n    tag_17:\n      pop\n      tag_18\n      0x04\n      dup1\n      calldatasize\n      sub\n      dup2\n      add\n      swap1\n      tag_19\n      swap2\n      swap1\n      tag_20\n      jump\t// in\n    tag_19:\n      tag_21\n      jump\t// in\n    tag_18:\n      mload(0x40)\n      tag_22\n      swap2\n      swap1\n      tag_11\n      jump\t// in\n    tag_22:\n      mload(0x40)\n      dup1\n      swap2\n      sub\n      swap1\n      return\n        /* \"contracts/vending_machine.sol\":394:570  function restock(uint amount)public{... */\n    tag_5:\n      callvalue\n      dup1\n      iszero\n      tag_23\n      jumpi\n      0x00\n      dup1\n      revert\n    tag_23:\n      pop\n      tag_24\n      0x04\n      dup1\n      calldatasize\n      sub\n      dup2\n      add\n      swap1\n      tag_25\n      swap2\n      swap1\n      tag_26\n      jump\t// in\n    tag_25:\n      tag_27\n      jump\t// in\n    tag_24:\n      stop\n        /* \"contracts/vending_machine.sol\":578:933  function purchase(uint amount) public payable {... */\n    tag_6:\n      tag_28\n      0x04\n      dup1\n      calldatasize\n      sub\n      dup2\n      add\n      swap1\n      tag_29\n      swap2\n      swap1\n      tag_26\n      jump\t// in\n    tag_29:\n      tag_30\n      jump\t// in\n    tag_28:\n      stop\n        /* \"contracts/vending_machine.sol\":270:386  function getvendingmachinebalance()public view returns  (uint){... */\n    tag_9:\n        /* \"contracts/vending_machine.sol\":327:331  uint */\n      0x00\n        /* \"contracts/vending_machine.sol\":349:362  donutBalances */\n      0x01\n        /* \"contracts/vending_machine.sol\":349:377  donutBalances[address(this)] */\n      0x00\n        /* \"contracts/vending_machine.sol\":371:375  this */\n      address\n        /* \"contracts/vending_machine.sol\":349:377  donutBalances[address(this)] */\n      0xffffffffffffffffffffffffffffffffffffffff\n      and\n      0xffffffffffffffffffffffffffffffffffffffff\n      and\n      dup2\n      mstore\n      0x20\n      add\n      swap1\n      dup2\n      mstore\n      0x20\n      add\n      0x00\n      keccak256\n      sload\n        /* \"contracts/vending_machine.sol\":342:377  return donutBalances[address(this)] */\n      swap1\n      pop\n        /* \"contracts/vending_machine.sol\":270:386  function getvendingmachinebalance()public view returns  (uint){... */\n      swap1\n      jump\t// out\n        /* \"contracts/vending_machine.sol\":90:110  address public owner */\n    tag_14:\n      0x00\n      dup1\n      sload\n      swap1\n      0x0100\n      exp\n      swap1\n      div\n      0xffffffffffffffffffffffffffffffffffffffff\n      and\n      dup2\n      jump\t// out\n        /* \"contracts/vending_machine.sol\":117:162  mapping (address => uint)public donutBalances */\n    tag_21:\n      mstore(0x20, 0x01)\n      dup1\n      0x00\n      mstore\n      keccak256(0x00, 0x40)\n      0x00\n      swap2\n      pop\n      swap1\n      pop\n      sload\n      dup2\n      jump\t// out\n        /* \"contracts/vending_machine.sol\":394:570  function restock(uint amount)public{... */\n    tag_27:\n        /* \"contracts/vending_machine.sol\":461:466  owner */\n      0x00\n      dup1\n      sload\n      swap1\n      0x0100\n      exp\n      swap1\n      div\n      0xffffffffffffffffffffffffffffffffffffffff\n      and\n        /* \"contracts/vending_machine.sol\":448:466  msg.sender ==owner */\n      0xffffffffffffffffffffffffffffffffffffffff\n      and\n        /* \"contracts/vending_machine.sol\":448:458  msg.sender */\n      caller\n        /* \"contracts/vending_machine.sol\":448:466  msg.sender ==owner */\n      0xffffffffffffffffffffffffffffffffffffffff\n      and\n      eq\n        /* \"contracts/vending_machine.sol\":440:512  require(msg.sender ==owner, \"only the owner cann restock this machine.\") */\n      tag_33\n      jumpi\n      mload(0x40)\n      0x08c379a000000000000000000000000000000000000000000000000000000000\n      dup2\n      mstore\n      0x04\n      add\n      tag_34\n      swap1\n      tag_35\n      jump\t// in\n    tag_34:\n      mload(0x40)\n      dup1\n      swap2\n      sub\n      swap1\n      revert\n    tag_33:\n        /* \"contracts/vending_machine.sol\":555:561  amount */\n      dup1\n        /* \"contracts/vending_machine.sol\":523:536  donutBalances */\n      0x01\n        /* \"contracts/vending_machine.sol\":523:551  donutBalances[address(this)] */\n      0x00\n        /* \"contracts/vending_machine.sol\":545:549  this */\n      address\n        /* \"contracts/vending_machine.sol\":523:551  donutBalances[address(this)] */\n      0xffffffffffffffffffffffffffffffffffffffff\n      and\n      0xffffffffffffffffffffffffffffffffffffffff\n      and\n      dup2\n      mstore\n      0x20\n      add\n      swap1\n      dup2\n      mstore\n      0x20\n      add\n      0x00\n      keccak256\n      0x00\n        /* \"contracts/vending_machine.sol\":523:561  donutBalances[address(this)] -= amount */\n      dup3\n      dup3\n      sload\n      tag_36\n      swap2\n      swap1\n      tag_37\n      jump\t// in\n    tag_36:\n      swap3\n      pop\n      pop\n      dup2\n      swap1\n      sstore\n      pop\n        /* \"contracts/vending_machine.sol\":394:570  function restock(uint amount)public{... */\n      pop\n      jump\t// out\n        /* \"contracts/vending_machine.sol\":578:933  function purchase(uint amount) public payable {... */\n    tag_30:\n        /* \"contracts/vending_machine.sol\":664:671  2 ether */\n      0x1bc16d674ec80000\n        /* \"contracts/vending_machine.sol\":656:662  amount */\n      dup2\n        /* \"contracts/vending_machine.sol\":656:671  amount *2 ether */\n      tag_39\n      swap2\n      swap1\n      tag_40\n      jump\t// in\n    tag_39:\n        /* \"contracts/vending_machine.sol\":643:652  msg.value */\n      callvalue\n        /* \"contracts/vending_machine.sol\":643:671  msg.value >= amount *2 ether */\n      lt\n      iszero\n        /* \"contracts/vending_machine.sol\":635:714  require(msg.value >= amount *2 ether,\"you must pay at least 2 ether per donut\") */\n      tag_41\n      jumpi\n      mload(0x40)\n      0x08c379a000000000000000000000000000000000000000000000000000000000\n      dup2\n      mstore\n      0x04\n      add\n      tag_42\n      swap1\n      tag_43\n      jump\t// in\n    tag_42:\n      mload(0x40)\n      dup1\n      swap2\n      sub\n      swap1\n      revert\n    tag_41:\n        /* \"contracts/vending_machine.sol\":765:771  amount */\n      dup1\n        /* \"contracts/vending_machine.sol\":733:746  donutBalances */\n      0x01\n        /* \"contracts/vending_machine.sol\":733:761  donutBalances[address(this)] */\n      0x00\n        /* \"contracts/vending_machine.sol\":755:759  this */\n      address\n        /* \"contracts/vending_machine.sol\":733:761  donutBalances[address(this)] */\n      0xffffffffffffffffffffffffffffffffffffffff\n      and\n      0xffffffffffffffffffffffffffffffffffffffff\n      and\n      dup2\n      mstore\n      0x20\n      add\n      swap1\n      dup2\n      mstore\n      0x20\n      add\n      0x00\n      keccak256\n      sload\n        /* \"contracts/vending_machine.sol\":733:771  donutBalances[address(this)] >= amount */\n      lt\n      iszero\n        /* \"contracts/vending_machine.sol\":725:830  require(donutBalances[address(this)] >= amount,\" not enough donuts in stock tp fulfill purchase request\") */\n      tag_44\n      jumpi\n      mload(0x40)\n      0x08c379a000000000000000000000000000000000000000000000000000000000\n      dup2\n      mstore\n      0x04\n      add\n      tag_45\n      swap1\n      tag_46\n      jump\t// in\n    tag_45:\n      mload(0x40)\n      dup1\n      swap2\n      sub\n      swap1\n      revert\n    tag_44:\n        /* \"contracts/vending_machine.sol\":873:879  amount */\n      dup1\n        /* \"contracts/vending_machine.sol\":841:854  donutBalances */\n      0x01\n        /* \"contracts/vending_machine.sol\":841:869  donutBalances[address(this)] */\n      0x00\n        /* \"contracts/vending_machine.sol\":863:867  this */\n      address\n        /* \"contracts/vending_machine.sol\":841:869  donutBalances[address(this)] */\n      0xffffffffffffffffffffffffffffffffffffffff\n      and\n      0xffffffffffffffffffffffffffffffffffffffff\n      and\n      dup2\n      mstore\n      0x20\n      add\n      swap1\n      dup2\n      mstore\n      0x20\n      add\n      0x00\n      keccak256\n      0x00\n        /* \"contracts/vending_machine.sol\":841:879  donutBalances[address(this)] -= amount */\n      dup3\n      dup3\n      sload\n      tag_47\n      swap2\n      swap1\n      tag_37\n      jump\t// in\n    tag_47:\n      swap3\n      pop\n      pop\n      dup2\n      swap1\n      sstore\n      pop\n        /* \"contracts/vending_machine.sol\":919:925  amount */\n      dup1\n        /* \"contracts/vending_machine.sol\":890:903  donutBalances */\n      0x01\n        /* \"contracts/vending_machine.sol\":890:915  donutBalances[msg.sender] */\n      0x00\n        /* \"contracts/vending_machine.sol\":904:914  msg.sender */\n      caller\n        /* \"contracts/vending_machine.sol\":890:915  donutBalances[msg.sender] */\n      0xffffffffffffffffffffffffffffffffffffffff\n      and\n      0xffffffffffffffffffffffffffffffffffffffff\n      and\n      dup2\n      mstore\n      0x20\n      add\n      swap1\n      dup2\n      mstore\n      0x20\n      add\n      0x00\n      keccak256\n      0x00\n        /* \"contracts/vending_machine.sol\":890:925  donutBalances[msg.sender] += amount */\n      dup3\n      dup3\n      sload\n      tag_48\n      swap2\n      swap1\n      tag_49\n      jump\t// in\n    tag_48:\n      swap3\n      pop\n      pop\n      dup2\n      swap1\n      sstore\n      pop\n        /* \"contracts/vending_machine.sol\":578:933  function purchase(uint amount) public payable {... */\n      pop\n      jump\t// out\n        /* \"#utility.yul\":7:84   */\n    tag_50:\n        /* \"#utility.yul\":44:51   */\n      0x00\n        /* \"#utility.yul\":73:78   */\n      dup2\n        /* \"#utility.yul\":62:78   */\n      swap1\n      pop\n        /* \"#utility.yul\":7:84   */\n      swap2\n      swap1\n      pop\n      jump\t// out\n        /* \"#utility.yul\":90:208   */\n    tag_51:\n        /* \"#utility.yul\":177:201   */\n      tag_73\n        /* \"#utility.yul\":195:200   */\n      dup2\n        /* \"#utility.yul\":177:201   */\n      tag_50\n      jump\t// in\n    tag_73:\n        /* \"#utility.yul\":172:175   */\n      dup3\n        /* \"#utility.yul\":165:202   */\n      mstore\n        /* \"#utility.yul\":90:208   */\n      pop\n      pop\n      jump\t// out\n        /* \"#utility.yul\":214:436   */\n    tag_11:\n        /* \"#utility.yul\":307:311   */\n      0x00\n        /* \"#utility.yul\":345:347   */\n      0x20\n        /* \"#utility.yul\":334:343   */\n      dup3\n        /* \"#utility.yul\":330:348   */\n      add\n        /* \"#utility.yul\":322:348   */\n      swap1\n      pop\n        /* \"#utility.yul\":358:429   */\n      tag_75\n        /* \"#utility.yul\":426:427   */\n      0x00\n        /* \"#utility.yul\":415:424   */\n      dup4\n        /* \"#utility.yul\":411:428   */\n      add\n        /* \"#utility.yul\":402:408   */\n      dup5\n        /* \"#utility.yul\":358:429   */\n      tag_51\n      jump\t// in\n    tag_75:\n        /* \"#utility.yul\":214:436   */\n      swap3\n      swap2\n      pop\n      pop\n      jump\t// out\n        /* \"#utility.yul\":442:568   */\n    tag_52:\n        /* \"#utility.yul\":479:486   */\n      0x00\n        /* \"#utility.yul\":519:561   */\n      0xffffffffffffffffffffffffffffffffffffffff\n        /* \"#utility.yul\":512:517   */\n      dup3\n        /* \"#utility.yul\":508:562   */\n      and\n        /* \"#utility.yul\":497:562   */\n      swap1\n      pop\n        /* \"#utility.yul\":442:568   */\n      swap2\n      swap1\n      pop\n      jump\t// out\n        /* \"#utility.yul\":574:670   */\n    tag_53:\n        /* \"#utility.yul\":611:618   */\n      0x00\n        /* \"#utility.yul\":640:664   */\n      tag_78\n        /* \"#utility.yul\":658:663   */\n      dup3\n        /* \"#utility.yul\":640:664   */\n      tag_52\n      jump\t// in\n    tag_78:\n        /* \"#utility.yul\":629:664   */\n      swap1\n      pop\n        /* \"#utility.yul\":574:670   */\n      swap2\n      swap1\n      pop\n      jump\t// out\n        /* \"#utility.yul\":676:794   */\n    tag_54:\n        /* \"#utility.yul\":763:787   */\n      tag_80\n        /* \"#utility.yul\":781:786   */\n      dup2\n        /* \"#utility.yul\":763:787   */\n      tag_53\n      jump\t// in\n    tag_80:\n        /* \"#utility.yul\":758:761   */\n      dup3\n        /* \"#utility.yul\":751:788   */\n      mstore\n        /* \"#utility.yul\":676:794   */\n      pop\n      pop\n      jump\t// out\n        /* \"#utility.yul\":800:1022   */\n    tag_16:\n        /* \"#utility.yul\":893:897   */\n      0x00\n        /* \"#utility.yul\":931:933   */\n      0x20\n        /* \"#utility.yul\":920:929   */\n      dup3\n        /* \"#utility.yul\":916:934   */\n      add\n        /* \"#utility.yul\":908:934   */\n      swap1\n      pop\n        /* \"#utility.yul\":944:1015   */\n      tag_82\n        /* \"#utility.yul\":1012:1013   */\n      0x00\n        /* \"#utility.yul\":1001:1010   */\n      dup4\n        /* \"#utility.yul\":997:1014   */\n      add\n        /* \"#utility.yul\":988:994   */\n      dup5\n        /* \"#utility.yul\":944:1015   */\n      tag_54\n      jump\t// in\n    tag_82:\n        /* \"#utility.yul\":800:1022   */\n      swap3\n      swap2\n      pop\n      pop\n      jump\t// out\n        /* \"#utility.yul\":1109:1226   */\n    tag_56:\n        /* \"#utility.yul\":1218:1219   */\n      0x00\n        /* \"#utility.yul\":1215:1216   */\n      dup1\n        /* \"#utility.yul\":1208:1220   */\n      revert\n        /* \"#utility.yul\":1355:1477   */\n    tag_58:\n        /* \"#utility.yul\":1428:1452   */\n      tag_87\n        /* \"#utility.yul\":1446:1451   */\n      dup2\n        /* \"#utility.yul\":1428:1452   */\n      tag_53\n      jump\t// in\n    tag_87:\n        /* \"#utility.yul\":1421:1426   */\n      dup2\n        /* \"#utility.yul\":1418:1453   */\n      eq\n        /* \"#utility.yul\":1408:1471   */\n      tag_88\n      jumpi\n        /* \"#utility.yul\":1467:1468   */\n      0x00\n        /* \"#utility.yul\":1464:1465   */\n      dup1\n        /* \"#utility.yul\":1457:1469   */\n      revert\n        /* \"#utility.yul\":1408:1471   */\n    tag_88:\n        /* \"#utility.yul\":1355:1477   */\n      pop\n      jump\t// out\n        /* \"#utility.yul\":1483:1622   */\n    tag_59:\n        /* \"#utility.yul\":1529:1534   */\n      0x00\n        /* \"#utility.yul\":1567:1573   */\n      dup2\n        /* \"#utility.yul\":1554:1574   */\n      calldataload\n        /* \"#utility.yul\":1545:1574   */\n      swap1\n      pop\n        /* \"#utility.yul\":1583:1616   */\n      tag_90\n        /* \"#utility.yul\":1610:1615   */\n      dup2\n        /* \"#utility.yul\":1583:1616   */\n      tag_58\n      jump\t// in\n    tag_90:\n        /* \"#utility.yul\":1483:1622   */\n      swap3\n      swap2\n      pop\n      pop\n      jump\t// out\n        /* \"#utility.yul\":1628:1957   */\n    tag_20:\n        /* \"#utility.yul\":1687:1693   */\n      0x00\n        /* \"#utility.yul\":1736:1738   */\n      0x20\n        /* \"#utility.yul\":1724:1733   */\n      dup3\n        /* \"#utility.yul\":1715:1722   */\n      dup5\n        /* \"#utility.yul\":1711:1734   */\n      sub\n        /* \"#utility.yul\":1707:1739   */\n      slt\n        /* \"#utility.yul\":1704:1823   */\n      iszero\n      tag_92\n      jumpi\n        /* \"#utility.yul\":1742:1821   */\n      tag_93\n      tag_56\n      jump\t// in\n    tag_93:\n        /* \"#utility.yul\":1704:1823   */\n    tag_92:\n        /* \"#utility.yul\":1862:1863   */\n      0x00\n        /* \"#utility.yul\":1887:1940   */\n      tag_94\n        /* \"#utility.yul\":1932:1939   */\n      dup5\n        /* \"#utility.yul\":1923:1929   */\n      dup3\n        /* \"#utility.yul\":1912:1921   */\n      dup6\n        /* \"#utility.yul\":1908:1930   */\n      add\n        /* \"#utility.yul\":1887:1940   */\n      tag_59\n      jump\t// in\n    tag_94:\n        /* \"#utility.yul\":1877:1940   */\n      swap2\n      pop\n        /* \"#utility.yul\":1833:1950   */\n      pop\n        /* \"#utility.yul\":1628:1957   */\n      swap3\n      swap2\n      pop\n      pop\n      jump\t// out\n        /* \"#utility.yul\":1963:2085   */\n    tag_60:\n        /* \"#utility.yul\":2036:2060   */\n      tag_96\n        /* \"#utility.yul\":2054:2059   */\n      dup2\n        /* \"#utility.yul\":2036:2060   */\n      tag_50\n      jump\t// in\n    tag_96:\n        /* \"#utility.yul\":2029:2034   */\n      dup2\n        /* \"#utility.yul\":2026:2061   */\n      eq\n        /* \"#utility.yul\":2016:2079   */\n      tag_97\n      jumpi\n        /* \"#utility.yul\":2075:2076   */\n      0x00\n        /* \"#utility.yul\":2072:2073   */\n      dup1\n        /* \"#utility.yul\":2065:2077   */\n      revert\n        /* \"#utility.yul\":2016:2079   */\n    tag_97:\n        /* \"#utility.yul\":1963:2085   */\n      pop\n      jump\t// out\n        /* \"#utility.yul\":2091:2230   */\n    tag_61:\n        /* \"#utility.yul\":2137:2142   */\n      0x00\n        /* \"#utility.yul\":2175:2181   */\n      dup2\n        /* \"#utility.yul\":2162:2182   */\n      calldataload\n        /* \"#utility.yul\":2153:2182   */\n      swap1\n      pop\n        /* \"#utility.yul\":2191:2224   */\n      tag_99\n        /* \"#utility.yul\":2218:2223   */\n      dup2\n        /* \"#utility.yul\":2191:2224   */\n      tag_60\n      jump\t// in\n    tag_99:\n        /* \"#utility.yul\":2091:2230   */\n      swap3\n      swap2\n      pop\n      pop\n      jump\t// out\n        /* \"#utility.yul\":2236:2565   */\n    tag_26:\n        /* \"#utility.yul\":2295:2301   */\n      0x00\n        /* \"#utility.yul\":2344:2346   */\n      0x20\n        /* \"#utility.yul\":2332:2341   */\n      dup3\n        /* \"#utility.yul\":2323:2330   */\n      dup5\n        /* \"#utility.yul\":2319:2342   */\n      sub\n        /* \"#utility.yul\":2315:2347   */\n      slt\n        /* \"#utility.yul\":2312:2431   */\n      iszero\n      tag_101\n      jumpi\n        /* \"#utility.yul\":2350:2429   */\n      tag_102\n      tag_56\n      jump\t// in\n    tag_102:\n        /* \"#utility.yul\":2312:2431   */\n    tag_101:\n        /* \"#utility.yul\":2470:2471   */\n      0x00\n        /* \"#utility.yul\":2495:2548   */\n      tag_103\n        /* \"#utility.yul\":2540:2547   */\n      dup5\n        /* \"#utility.yul\":2531:2537   */\n      dup3\n        /* \"#utility.yul\":2520:2529   */\n      dup6\n        /* \"#utility.yul\":2516:2538   */\n      add\n        /* \"#utility.yul\":2495:2548   */\n      tag_61\n      jump\t// in\n    tag_103:\n        /* \"#utility.yul\":2485:2548   */\n      swap2\n      pop\n        /* \"#utility.yul\":2441:2558   */\n      pop\n        /* \"#utility.yul\":2236:2565   */\n      swap3\n      swap2\n      pop\n      pop\n      jump\t// out\n        /* \"#utility.yul\":2571:2740   */\n    tag_62:\n        /* \"#utility.yul\":2655:2666   */\n      0x00\n        /* \"#utility.yul\":2689:2695   */\n      dup3\n        /* \"#utility.yul\":2684:2687   */\n      dup3\n        /* \"#utility.yul\":2677:2696   */\n      mstore\n        /* \"#utility.yul\":2729:2733   */\n      0x20\n        /* \"#utility.yul\":2724:2727   */\n      dup3\n        /* \"#utility.yul\":2720:2734   */\n      add\n        /* \"#utility.yul\":2705:2734   */\n      swap1\n      pop\n        /* \"#utility.yul\":2571:2740   */\n      swap3\n      swap2\n      pop\n      pop\n      jump\t// out\n        /* \"#utility.yul\":2746:2974   */\n    tag_63:\n        /* \"#utility.yul\":2886:2920   */\n      0x6f6e6c7920746865206f776e65722063616e6e20726573746f636b2074686973\n        /* \"#utility.yul\":2882:2883   */\n      0x00\n        /* \"#utility.yul\":2874:2880   */\n      dup3\n        /* \"#utility.yul\":2870:2884   */\n      add\n        /* \"#utility.yul\":2863:2921   */\n      mstore\n        /* \"#utility.yul\":2955:2966   */\n      0x206d616368696e652e0000000000000000000000000000000000000000000000\n        /* \"#utility.yul\":2950:2952   */\n      0x20\n        /* \"#utility.yul\":2942:2948   */\n      dup3\n        /* \"#utility.yul\":2938:2953   */\n      add\n        /* \"#utility.yul\":2931:2967   */\n      mstore\n        /* \"#utility.yul\":2746:2974   */\n      pop\n      jump\t// out\n        /* \"#utility.yul\":2980:3346   */\n    tag_64:\n        /* \"#utility.yul\":3122:3125   */\n      0x00\n        /* \"#utility.yul\":3143:3210   */\n      tag_107\n        /* \"#utility.yul\":3207:3209   */\n      0x29\n        /* \"#utility.yul\":3202:3205   */\n      dup4\n        /* \"#utility.yul\":3143:3210   */\n      tag_62\n      jump\t// in\n    tag_107:\n        /* \"#utility.yul\":3136:3210   */\n      swap2\n      pop\n        /* \"#utility.yul\":3219:3312   */\n      tag_108\n        /* \"#utility.yul\":3308:3311   */\n      dup3\n        /* \"#utility.yul\":3219:3312   */\n      tag_63\n      jump\t// in\n    tag_108:\n        /* \"#utility.yul\":3337:3339   */\n      0x40\n        /* \"#utility.yul\":3332:3335   */\n      dup3\n        /* \"#utility.yul\":3328:3340   */\n      add\n        /* \"#utility.yul\":3321:3340   */\n      swap1\n      pop\n        /* \"#utility.yul\":2980:3346   */\n      swap2\n      swap1\n      pop\n      jump\t// out\n        /* \"#utility.yul\":3352:3771   */\n    tag_35:\n        /* \"#utility.yul\":3518:3522   */\n      0x00\n        /* \"#utility.yul\":3556:3558   */\n      0x20\n        /* \"#utility.yul\":3545:3554   */\n      dup3\n        /* \"#utility.yul\":3541:3559   */\n      add\n        /* \"#utility.yul\":3533:3559   */\n      swap1\n      pop\n        /* \"#utility.yul\":3605:3614   */\n      dup2\n        /* \"#utility.yul\":3599:3603   */\n      dup2\n        /* \"#utility.yul\":3595:3615   */\n      sub\n        /* \"#utility.yul\":3591:3592   */\n      0x00\n        /* \"#utility.yul\":3580:3589   */\n      dup4\n        /* \"#utility.yul\":3576:3593   */\n      add\n        /* \"#utility.yul\":3569:3616   */\n      mstore\n        /* \"#utility.yul\":3633:3764   */\n      tag_110\n        /* \"#utility.yul\":3759:3763   */\n      dup2\n        /* \"#utility.yul\":3633:3764   */\n      tag_64\n      jump\t// in\n    tag_110:\n        /* \"#utility.yul\":3625:3764   */\n      swap1\n      pop\n        /* \"#utility.yul\":3352:3771   */\n      swap2\n      swap1\n      pop\n      jump\t// out\n        /* \"#utility.yul\":3777:3957   */\n    tag_65:\n        /* \"#utility.yul\":3825:3902   */\n      0x4e487b7100000000000000000000000000000000000000000000000000000000\n        /* \"#utility.yul\":3822:3823   */\n      0x00\n        /* \"#utility.yul\":3815:3903   */\n      mstore\n        /* \"#utility.yul\":3922:3926   */\n      0x11\n        /* \"#utility.yul\":3919:3920   */\n      0x04\n        /* \"#utility.yul\":3912:3927   */\n      mstore\n        /* \"#utility.yul\":3946:3950   */\n      0x24\n        /* \"#utility.yul\":3943:3944   */\n      0x00\n        /* \"#utility.yul\":3936:3951   */\n      revert\n        /* \"#utility.yul\":3963:4157   */\n    tag_37:\n        /* \"#utility.yul\":4003:4007   */\n      0x00\n        /* \"#utility.yul\":4023:4043   */\n      tag_113\n        /* \"#utility.yul\":4041:4042   */\n      dup3\n        /* \"#utility.yul\":4023:4043   */\n      tag_50\n      jump\t// in\n    tag_113:\n        /* \"#utility.yul\":4018:4043   */\n      swap2\n      pop\n        /* \"#utility.yul\":4057:4077   */\n      tag_114\n        /* \"#utility.yul\":4075:4076   */\n      dup4\n        /* \"#utility.yul\":4057:4077   */\n      tag_50\n      jump\t// in\n    tag_114:\n        /* \"#utility.yul\":4052:4077   */\n      swap3\n      pop\n        /* \"#utility.yul\":4101:4102   */\n      dup3\n        /* \"#utility.yul\":4098:4099   */\n      dup3\n        /* \"#utility.yul\":4094:4103   */\n      sub\n        /* \"#utility.yul\":4086:4103   */\n      swap1\n      pop\n        /* \"#utility.yul\":4125:4126   */\n      dup2\n        /* \"#utility.yul\":4119:4123   */\n      dup2\n        /* \"#utility.yul\":4116:4127   */\n      gt\n        /* \"#utility.yul\":4113:4150   */\n      iszero\n      tag_115\n      jumpi\n        /* \"#utility.yul\":4130:4148   */\n      tag_116\n      tag_65\n      jump\t// in\n    tag_116:\n        /* \"#utility.yul\":4113:4150   */\n    tag_115:\n        /* \"#utility.yul\":3963:4157   */\n      swap3\n      swap2\n      pop\n      pop\n      jump\t// out\n        /* \"#utility.yul\":4163:4573   */\n    tag_40:\n        /* \"#utility.yul\":4203:4210   */\n      0x00\n        /* \"#utility.yul\":4226:4246   */\n      tag_118\n        /* \"#utility.yul\":4244:4245   */\n      dup3\n        /* \"#utility.yul\":4226:4246   */\n      tag_50\n      jump\t// in\n    tag_118:\n        /* \"#utility.yul\":4221:4246   */\n      swap2\n      pop\n        /* \"#utility.yul\":4260:4280   */\n      tag_119\n        /* \"#utility.yul\":4278:4279   */\n      dup4\n        /* \"#utility.yul\":4260:4280   */\n      tag_50\n      jump\t// in\n    tag_119:\n        /* \"#utility.yul\":4255:4280   */\n      swap3\n      pop\n        /* \"#utility.yul\":4315:4316   */\n      dup3\n        /* \"#utility.yul\":4312:4313   */\n      dup3\n        /* \"#utility.yul\":4308:4317   */\n      mul\n        /* \"#utility.yul\":4337:4367   */\n      tag_120\n        /* \"#utility.yul\":4355:4366   */\n      dup2\n        /* \"#utility.yul\":4337:4367   */\n      tag_50\n      jump\t// in\n    tag_120:\n        /* \"#utility.yul\":4326:4367   */\n      swap2\n      pop\n        /* \"#utility.yul\":4516:4517   */\n      dup3\n        /* \"#utility.yul\":4507:4514   */\n      dup3\n        /* \"#utility.yul\":4503:4518   */\n      div\n        /* \"#utility.yul\":4500:4501   */\n      dup5\n        /* \"#utility.yul\":4497:4519   */\n      eq\n        /* \"#utility.yul\":4477:4478   */\n      dup4\n        /* \"#utility.yul\":4470:4479   */\n      iszero\n        /* \"#utility.yul\":4450:4533   */\n      or\n        /* \"#utility.yul\":4427:4566   */\n      tag_121\n      jumpi\n        /* \"#utility.yul\":4546:4564   */\n      tag_122\n      tag_65\n      jump\t// in\n    tag_122:\n        /* \"#utility.yul\":4427:4566   */\n    tag_121:\n        /* \"#utility.yul\":4211:4573   */\n      pop\n        /* \"#utility.yul\":4163:4573   */\n      swap3\n      swap2\n      pop\n      pop\n      jump\t// out\n        /* \"#utility.yul\":4579:4805   */\n    tag_66:\n        /* \"#utility.yul\":4719:4753   */\n      0x796f75206d75737420706179206174206c656173742032206574686572207065\n        /* \"#utility.yul\":4715:4716   */\n      0x00\n        /* \"#utility.yul\":4707:4713   */\n      dup3\n        /* \"#utility.yul\":4703:4717   */\n      add\n        /* \"#utility.yul\":4696:4754   */\n      mstore\n        /* \"#utility.yul\":4788:4797   */\n      0x7220646f6e757400000000000000000000000000000000000000000000000000\n        /* \"#utility.yul\":4783:4785   */\n      0x20\n        /* \"#utility.yul\":4775:4781   */\n      dup3\n        /* \"#utility.yul\":4771:4786   */\n      add\n        /* \"#utility.yul\":4764:4798   */\n      mstore\n        /* \"#utility.yul\":4579:4805   */\n      pop\n      jump\t// out\n        /* \"#utility.yul\":4811:5177   */\n    tag_67:\n        /* \"#utility.yul\":4953:4956   */\n      0x00\n        /* \"#utility.yul\":4974:5041   */\n      tag_125\n        /* \"#utility.yul\":5038:5040   */\n      0x27\n        /* \"#utility.yul\":5033:5036   */\n      dup4\n        /* \"#utility.yul\":4974:5041   */\n      tag_62\n      jump\t// in\n    tag_125:\n        /* \"#utility.yul\":4967:5041   */\n      swap2\n      pop\n        /* \"#utility.yul\":5050:5143   */\n      tag_126\n        /* \"#utility.yul\":5139:5142   */\n      dup3\n        /* \"#utility.yul\":5050:5143   */\n      tag_66\n      jump\t// in\n    tag_126:\n        /* \"#utility.yul\":5168:5170   */\n      0x40\n        /* \"#utility.yul\":5163:5166   */\n      dup3\n        /* \"#utility.yul\":5159:5171   */\n      add\n        /* \"#utility.yul\":5152:5171   */\n      swap1\n      pop\n        /* \"#utility.yul\":4811:5177   */\n      swap2\n      swap1\n      pop\n      jump\t// out\n        /* \"#utility.yul\":5183:5602   */\n    tag_43:\n        /* \"#utility.yul\":5349:5353   */\n      0x00\n        /* \"#utility.yul\":5387:5389   */\n      0x20\n        /* \"#utility.yul\":5376:5385   */\n      dup3\n        /* \"#utility.yul\":5372:5390   */\n      add\n        /* \"#utility.yul\":5364:5390   */\n      swap1\n      pop\n        /* \"#utility.yul\":5436:5445   */\n      dup2\n        /* \"#utility.yul\":5430:5434   */\n      dup2\n        /* \"#utility.yul\":5426:5446   */\n      sub\n        /* \"#utility.yul\":5422:5423   */\n      0x00\n        /* \"#utility.yul\":5411:5420   */\n      dup4\n        /* \"#utility.yul\":5407:5424   */\n      add\n        /* \"#utility.yul\":5400:5447   */\n      mstore\n        /* \"#utility.yul\":5464:5595   */\n      tag_128\n        /* \"#utility.yul\":5590:5594   */\n      dup2\n        /* \"#utility.yul\":5464:5595   */\n      tag_67\n      jump\t// in\n    tag_128:\n        /* \"#utility.yul\":5456:5595   */\n      swap1\n      pop\n        /* \"#utility.yul\":5183:5602   */\n      swap2\n      swap1\n      pop\n      jump\t// out\n        /* \"#utility.yul\":5608:5850   */\n    tag_68:\n        /* \"#utility.yul\":5748:5782   */\n      0x206e6f7420656e6f75676820646f6e75747320696e2073746f636b2074702066\n        /* \"#utility.yul\":5744:5745   */\n      0x00\n        /* \"#utility.yul\":5736:5742   */\n      dup3\n        /* \"#utility.yul\":5732:5746   */\n      add\n        /* \"#utility.yul\":5725:5783   */\n      mstore\n        /* \"#utility.yul\":5817:5842   */\n      0x756c66696c6c2070757263686173652072657175657374000000000000000000\n        /* \"#utility.yul\":5812:5814   */\n      0x20\n        /* \"#utility.yul\":5804:5810   */\n      dup3\n        /* \"#utility.yul\":5800:5815   */\n      add\n        /* \"#utility.yul\":5793:5843   */\n      mstore\n        /* \"#utility.yul\":5608:5850   */\n      pop\n      jump\t// out\n        /* \"#utility.yul\":5856:6222   */\n    tag_69:\n        /* \"#utility.yul\":5998:6001   */\n      0x00\n        /* \"#utility.yul\":6019:6086   */\n      tag_131\n        /* \"#utility.yul\":6083:6085   */\n      0x37\n        /* \"#utility.yul\":6078:6081   */\n      dup4\n        /* \"#utility.yul\":6019:6086   */\n      tag_62\n      jump\t// in\n    tag_131:\n        /* \"#utility.yul\":6012:6086   */\n      swap2\n      pop\n        /* \"#utility.yul\":6095:6188   */\n      tag_132\n        /* \"#utility.yul\":6184:6187   */\n      dup3\n        /* \"#utility.yul\":6095:6188   */\n      tag_68\n      jump\t// in\n    tag_132:\n        /* \"#utility.yul\":6213:6215   */\n      0x40\n        /* \"#utility.yul\":6208:6211   */\n      dup3\n        /* \"#utility.yul\":6204:6216   */\n      add\n        /* \"#utility.yul\":6197:6216   */\n      swap1\n      pop\n        /* \"#utility.yul\":5856:6222   */\n      swap2\n      swap1\n      pop\n      jump\t// out\n        /* \"#utility.yul\":6228:6647   */\n    tag_46:\n        /* \"#utility.yul\":6394:6398   */\n      0x00\n        /* \"#utility.yul\":6432:6434   */\n      0x20\n        /* \"#utility.yul\":6421:6430   */\n      dup3\n        /* \"#utility.yul\":6417:6435   */\n      add\n        /* \"#utility.yul\":6409:6435   */\n      swap1\n      pop\n        /* \"#utility.yul\":6481:6490   */\n      dup2\n        /* \"#utility.yul\":6475:6479   */\n      dup2\n        /* \"#utility.yul\":6471:6491   */\n      sub\n        /* \"#utility.yul\":6467:6468   */\n      0x00\n        /* \"#utility.yul\":6456:6465   */\n      dup4\n        /* \"#utility.yul\":6452:6469   */\n      add\n        /* \"#utility.yul\":6445:6492   */\n      mstore\n        /* \"#utility.yul\":6509:6640   */\n      tag_134\n        /* \"#utility.yul\":6635:6639   */\n      dup2\n        /* \"#utility.yul\":6509:6640   */\n      tag_69\n      jump\t// in\n    tag_134:\n        /* \"#utility.yul\":6501:6640   */\n      swap1\n      pop\n        /* \"#utility.yul\":6228:6647   */\n      swap2\n      swap1\n      pop\n      jump\t// out\n        /* \"#utility.yul\":6653:6844   */\n    tag_49:\n        /* \"#utility.yul\":6693:6696   */\n      0x00\n        /* \"#utility.yul\":6712:6732   */\n      tag_136\n        /* \"#utility.yul\":6730:6731   */\n      dup3\n        /* \"#utility.yul\":6712:6732   */\n      tag_50\n      jump\t// in\n    tag_136:\n        /* \"#utility.yul\":6707:6732   */\n      swap2\n      pop\n        /* \"#utility.yul\":6746:6766   */\n      tag_137\n        /* \"#utility.yul\":6764:6765   */\n      dup4\n        /* \"#utility.yul\":6746:6766   */\n      tag_50\n      jump\t// in\n    tag_137:\n        /* \"#utility.yul\":6741:6766   */\n      swap3\n      pop\n        /* \"#utility.yul\":6789:6790   */\n      dup3\n        /* \"#utility.yul\":6786:6787   */\n      dup3\n        /* \"#utility.yul\":6782:6791   */\n      add\n        /* \"#utility.yul\":6775:6791   */\n      swap1\n      pop\n        /* \"#utility.yul\":6810:6813   */\n      dup1\n        /* \"#utility.yul\":6807:6808   */\n      dup3\n        /* \"#utility.yul\":6804:6814   */\n      gt\n        /* \"#utility.yul\":6801:6837   */\n      iszero\n      tag_138\n      jumpi\n        /* \"#utility.yul\":6817:6835   */\n      tag_139\n      tag_65\n      jump\t// in\n    tag_139:\n        /* \"#utility.yul\":6801:6837   */\n    tag_138:\n        /* \"#utility.yul\":6653:6844   */\n      swap3\n      swap2\n      pop\n      pop\n      jump\t// out\n\n    auxdata: 0xa264697066735822122080707f55cc2a3a80a1aa85d581101d4d67ef59da932ed1b580d3992066277f6164736f6c63430008160033\n}\n",
				"bytecode": {
					"linkReferences": {},
					"object": "608060405234801561000f575f80fd5b50335f806101000a81548173ffffffffffffffffffffffffffffffffffffffff021916908373ffffffffffffffffffffffffffffffffffffffff160217905550606460015f3073ffffffffffffffffffffffffffffffffffffffff1673ffffffffffffffffffffffffffffffffffffffff1681526020019081526020015f20819055506107fa8061009f5f395ff3fe608060405260043610610049575f3560e01c80634095d77d1461004d5780638da5cb5b146100775780639a020d8a146100a1578063c21a702a146100dd578063efef39a114610105575b5f80fd5b348015610058575f80fd5b50610061610121565b60405161006e9190610417565b60405180910390f35b348015610082575f80fd5b5061008b610165565b604051610098919061046f565b60405180910390f35b3480156100ac575f80fd5b506100c760048036038101906100c291906104b6565b610188565b6040516100d49190610417565b60405180910390f35b3480156100e8575f80fd5b5061010360048036038101906100fe919061050b565b61019d565b005b61011f600480360381019061011a919061050b565b610280565b005b5f60015f3073ffffffffffffffffffffffffffffffffffffffff1673ffffffffffffffffffffffffffffffffffffffff1681526020019081526020015f2054905090565b5f8054906101000a900473ffffffffffffffffffffffffffffffffffffffff1681565b6001602052805f5260405f205f915090505481565b5f8054906101000a900473ffffffffffffffffffffffffffffffffffffffff1673ffffffffffffffffffffffffffffffffffffffff163373ffffffffffffffffffffffffffffffffffffffff161461022a576040517f08c379a0000000000000000000000000000000000000000000000000000000008152600401610221906105b6565b60405180910390fd5b8060015f3073ffffffffffffffffffffffffffffffffffffffff1673ffffffffffffffffffffffffffffffffffffffff1681526020019081526020015f205f8282546102769190610601565b9250508190555050565b671bc16d674ec80000816102949190610634565b3410156102d6576040517f08c379a00000000000000000000000000000000000000000000000000000000081526004016102cd906106e5565b60405180910390fd5b8060015f3073ffffffffffffffffffffffffffffffffffffffff1673ffffffffffffffffffffffffffffffffffffffff1681526020019081526020015f20541015610356576040517f08c379a000000000000000000000000000000000000000000000000000000000815260040161034d90610773565b60405180910390fd5b8060015f3073ffffffffffffffffffffffffffffffffffffffff1673ffffffffffffffffffffffffffffffffffffffff1681526020019081526020015f205f8282546103a29190610601565b925050819055508060015f3373ffffffffffffffffffffffffffffffffffffffff1673ffffffffffffffffffffffffffffffffffffffff1681526020019081526020015f205f8282546103f59190610791565b9250508190555050565b5f819050919050565b610411816103ff565b82525050565b5f60208201905061042a5f830184610408565b92915050565b5f73ffffffffffffffffffffffffffffffffffffffff82169050919050565b5f61045982610430565b9050919050565b6104698161044f565b82525050565b5f6020820190506104825f830184610460565b92915050565b5f80fd5b6104958161044f565b811461049f575f80fd5b50565b5f813590506104b08161048c565b92915050565b5f602082840312156104cb576104ca610488565b5b5f6104d8848285016104a2565b91505092915050565b6104ea816103ff565b81146104f4575f80fd5b50565b5f81359050610505816104e1565b92915050565b5f602082840312156105205761051f610488565b5b5f61052d848285016104f7565b91505092915050565b5f82825260208201905092915050565b7f6f6e6c7920746865206f776e65722063616e6e20726573746f636b20746869735f8201527f206d616368696e652e0000000000000000000000000000000000000000000000602082015250565b5f6105a0602983610536565b91506105ab82610546565b604082019050919050565b5f6020820190508181035f8301526105cd81610594565b9050919050565b7f4e487b71000000000000000000000000000000000000000000000000000000005f52601160045260245ffd5b5f61060b826103ff565b9150610616836103ff565b925082820390508181111561062e5761062d6105d4565b5b92915050565b5f61063e826103ff565b9150610649836103ff565b9250828202610657816103ff565b9150828204841483151761066e5761066d6105d4565b5b5092915050565b7f796f75206d75737420706179206174206c6561737420322065746865722070655f8201527f7220646f6e757400000000000000000000000000000000000000000000000000602082015250565b5f6106cf602783610536565b91506106da82610675565b604082019050919050565b5f6020820190508181035f8301526106fc816106c3565b9050919050565b7f206e6f7420656e6f75676820646f6e75747320696e2073746f636b20747020665f8201527f756c66696c6c2070757263686173652072657175657374000000000000000000602082015250565b5f61075d603783610536565b915061076882610703565b604082019050919050565b5f6020820190508181035f83015261078a81610751565b9050919050565b5f61079b826103ff565b91506107a6836103ff565b92508282019050808211156107be576107bd6105d4565b5b9291505056fea264697066735822122080707f55cc2a3a80a1aa85d581101d4d67ef59da932ed1b580d3992066277f6164736f6c63430008160033",
					"opcodes": "PUSH1 0x80 PUSH1 0x40 MSTORE CALLVALUE DUP1 ISZERO PUSH2 0xF JUMPI PUSH0 DUP1 REVERT JUMPDEST POP CALLER PUSH0 DUP1 PUSH2 0x100 EXP DUP2 SLOAD DUP2 PUSH20 0xFFFFFFFFFFFFFFFFFFFFFFFFFFFFFFFFFFFFFFFF MUL NOT AND SWAP1 DUP4 PUSH20 0xFFFFFFFFFFFFFFFFFFFFFFFFFFFFFFFFFFFFFFFF AND MUL OR SWAP1 SSTORE POP PUSH1 0x64 PUSH1 0x1 PUSH0 ADDRESS PUSH20 0xFFFFFFFFFFFFFFFFFFFFFFFFFFFFFFFFFFFFFFFF AND PUSH20 0xFFFFFFFFFFFFFFFFFFFFFFFFFFFFFFFFFFFFFFFF AND DUP2 MSTORE PUSH1 0x20 ADD SWAP1 DUP2 MSTORE PUSH1 0x20 ADD PUSH0 KECCAK256 DUP2 SWAP1 SSTORE POP PUSH2 0x7FA DUP1 PUSH2 0x9F PUSH0 CODECOPY PUSH0 RETURN INVALID PUSH1 0x80 PUSH1 0x40 MSTORE PUSH1 0x4 CALLDATASIZE LT PUSH2 0x49 JUMPI PUSH0 CALLDATALOAD PUSH1 0xE0 SHR DUP1 PUSH4 0x4095D77D EQ PUSH2 0x4D JUMPI DUP1 PUSH4 0x8DA5CB5B EQ PUSH2 0x77 JUMPI DUP1 PUSH4 0x9A020D8A EQ PUSH2 0xA1 JUMPI DUP1 PUSH4 0xC21A702A EQ PUSH2 0xDD JUMPI DUP1 PUSH4 0xEFEF39A1 EQ PUSH2 0x105 JUMPI JUMPDEST PUSH0 DUP1 REVERT JUMPDEST CALLVALUE DUP1 ISZERO PUSH2 0x58 JUMPI PUSH0 DUP1 REVERT JUMPDEST POP PUSH2 0x61 PUSH2 0x121 JUMP JUMPDEST PUSH1 0x40 MLOAD PUSH2 0x6E SWAP2 SWAP1 PUSH2 0x417 JUMP JUMPDEST PUSH1 0x40 MLOAD DUP1 SWAP2 SUB SWAP1 RETURN JUMPDEST CALLVALUE DUP1 ISZERO PUSH2 0x82 JUMPI PUSH0 DUP1 REVERT JUMPDEST POP PUSH2 0x8B PUSH2 0x165 JUMP JUMPDEST PUSH1 0x40 MLOAD PUSH2 0x98 SWAP2 SWAP1 PUSH2 0x46F JUMP JUMPDEST PUSH1 0x40 MLOAD DUP1 SWAP2 SUB SWAP1 RETURN JUMPDEST CALLVALUE DUP1 ISZERO PUSH2 0xAC JUMPI PUSH0 DUP1 REVERT JUMPDEST POP PUSH2 0xC7 PUSH1 0x4 DUP1 CALLDATASIZE SUB DUP2 ADD SWAP1 PUSH2 0xC2 SWAP2 SWAP1 PUSH2 0x4B6 JUMP JUMPDEST PUSH2 0x188 JUMP JUMPDEST PUSH1 0x40 MLOAD PUSH2 0xD4 SWAP2 SWAP1 PUSH2 0x417 JUMP JUMPDEST PUSH1 0x40 MLOAD DUP1 SWAP2 SUB SWAP1 RETURN JUMPDEST CALLVALUE DUP1 ISZERO PUSH2 0xE8 JUMPI PUSH0 DUP1 REVERT JUMPDEST POP PUSH2 0x103 PUSH1 0x4 DUP1 CALLDATASIZE SUB DUP2 ADD SWAP1 PUSH2 0xFE SWAP2 SWAP1 PUSH2 0x50B JUMP JUMPDEST PUSH2 0x19D JUMP JUMPDEST STOP JUMPDEST PUSH2 0x11F PUSH1 0x4 DUP1 CALLDATASIZE SUB DUP2 ADD SWAP1 PUSH2 0x11A SWAP2 SWAP1 PUSH2 0x50B JUMP JUMPDEST PUSH2 0x280 JUMP JUMPDEST STOP JUMPDEST PUSH0 PUSH1 0x1 PUSH0 ADDRESS PUSH20 0xFFFFFFFFFFFFFFFFFFFFFFFFFFFFFFFFFFFFFFFF AND PUSH20 0xFFFFFFFFFFFFFFFFFFFFFFFFFFFFFFFFFFFFFFFF AND DUP2 MSTORE PUSH1 0x20 ADD SWAP1 DUP2 MSTORE PUSH1 0x20 ADD PUSH0 KECCAK256 SLOAD SWAP1 POP SWAP1 JUMP JUMPDEST PUSH0 DUP1 SLOAD SWAP1 PUSH2 0x100 EXP SWAP1 DIV PUSH20 0xFFFFFFFFFFFFFFFFFFFFFFFFFFFFFFFFFFFFFFFF AND DUP2 JUMP JUMPDEST PUSH1 0x1 PUSH1 0x20 MSTORE DUP1 PUSH0 MSTORE PUSH1 0x40 PUSH0 KECCAK256 PUSH0 SWAP2 POP SWAP1 POP SLOAD DUP2 JUMP JUMPDEST PUSH0 DUP1 SLOAD SWAP1 PUSH2 0x100 EXP SWAP1 DIV PUSH20 0xFFFFFFFFFFFFFFFFFFFFFFFFFFFFFFFFFFFFFFFF AND PUSH20 0xFFFFFFFFFFFFFFFFFFFFFFFFFFFFFFFFFFFFFFFF AND CALLER PUSH20 0xFFFFFFFFFFFFFFFFFFFFFFFFFFFFFFFFFFFFFFFF AND EQ PUSH2 0x22A JUMPI PUSH1 0x40 MLOAD PUSH32 0x8C379A000000000000000000000000000000000000000000000000000000000 DUP2 MSTORE PUSH1 0x4 ADD PUSH2 0x221 SWAP1 PUSH2 0x5B6 JUMP JUMPDEST PUSH1 0x40 MLOAD DUP1 SWAP2 SUB SWAP1 REVERT JUMPDEST DUP1 PUSH1 0x1 PUSH0 ADDRESS PUSH20 0xFFFFFFFFFFFFFFFFFFFFFFFFFFFFFFFFFFFFFFFF AND PUSH20 0xFFFFFFFFFFFFFFFFFFFFFFFFFFFFFFFFFFFFFFFF AND DUP2 MSTORE PUSH1 0x20 ADD SWAP1 DUP2 MSTORE PUSH1 0x20 ADD PUSH0 KECCAK256 PUSH0 DUP3 DUP3 SLOAD PUSH2 0x276 SWAP2 SWAP1 PUSH2 0x601 JUMP JUMPDEST SWAP3 POP POP DUP2 SWAP1 SSTORE POP POP JUMP JUMPDEST PUSH8 0x1BC16D674EC80000 DUP2 PUSH2 0x294 SWAP2 SWAP1 PUSH2 0x634 JUMP JUMPDEST CALLVALUE LT ISZERO PUSH2 0x2D6 JUMPI PUSH1 0x40 MLOAD PUSH32 0x8C379A000000000000000000000000000000000000000000000000000000000 DUP2 MSTORE PUSH1 0x4 ADD PUSH2 0x2CD SWAP1 PUSH2 0x6E5 JUMP JUMPDEST PUSH1 0x40 MLOAD DUP1 SWAP2 SUB SWAP1 REVERT JUMPDEST DUP1 PUSH1 0x1 PUSH0 ADDRESS PUSH20 0xFFFFFFFFFFFFFFFFFFFFFFFFFFFFFFFFFFFFFFFF AND PUSH20 0xFFFFFFFFFFFFFFFFFFFFFFFFFFFFFFFFFFFFFFFF AND DUP2 MSTORE PUSH1 0x20 ADD SWAP1 DUP2 MSTORE PUSH1 0x20 ADD PUSH0 KECCAK256 SLOAD LT ISZERO PUSH2 0x356 JUMPI PUSH1 0x40 MLOAD PUSH32 0x8C379A000000000000000000000000000000000000000000000000000000000 DUP2 MSTORE PUSH1 0x4 ADD PUSH2 0x34D SWAP1 PUSH2 0x773 JUMP JUMPDEST PUSH1 0x40 MLOAD DUP1 SWAP2 SUB SWAP1 REVERT JUMPDEST DUP1 PUSH1 0x1 PUSH0 ADDRESS PUSH20 0xFFFFFFFFFFFFFFFFFFFFFFFFFFFFFFFFFFFFFFFF AND PUSH20 0xFFFFFFFFFFFFFFFFFFFFFFFFFFFFFFFFFFFFFFFF AND DUP2 MSTORE PUSH1 0x20 ADD SWAP1 DUP2 MSTORE PUSH1 0x20 ADD PUSH0 KECCAK256 PUSH0 DUP3 DUP3 SLOAD PUSH2 0x3A2 SWAP2 SWAP1 PUSH2 0x601 JUMP JUMPDEST SWAP3 POP POP DUP2 SWAP1 SSTORE POP DUP1 PUSH1 0x1 PUSH0 CALLER PUSH20 0xFFFFFFFFFFFFFFFFFFFFFFFFFFFFFFFFFFFFFFFF AND PUSH20 0xFFFFFFFFFFFFFFFFFFFFFFFFFFFFFFFFFFFFFFFF AND DUP2 MSTORE PUSH1 0x20 ADD SWAP1 DUP2 MSTORE PUSH1 0x20 ADD PUSH0 KECCAK256 PUSH0 DUP3 DUP3 SLOAD PUSH2 0x3F5 SWAP2 SWAP1 PUSH2 0x791 JUMP JUMPDEST SWAP3 POP POP DUP2 SWAP1 SSTORE POP POP JUMP JUMPDEST PUSH0 DUP2 SWAP1 POP SWAP2 SWAP1 POP JUMP JUMPDEST PUSH2 0x411 DUP2 PUSH2 0x3FF JUMP JUMPDEST DUP3 MSTORE POP POP JUMP JUMPDEST PUSH0 PUSH1 0x20 DUP3 ADD SWAP1 POP PUSH2 0x42A PUSH0 DUP4 ADD DUP5 PUSH2 0x408 JUMP JUMPDEST SWAP3 SWAP2 POP POP JUMP JUMPDEST PUSH0 PUSH20 0xFFFFFFFFFFFFFFFFFFFFFFFFFFFFFFFFFFFFFFFF DUP3 AND SWAP1 POP SWAP2 SWAP1 POP JUMP JUMPDEST PUSH0 PUSH2 0x459 DUP3 PUSH2 0x430 JUMP JUMPDEST SWAP1 POP SWAP2 SWAP1 POP JUMP JUMPDEST PUSH2 0x469 DUP2 PUSH2 0x44F JUMP JUMPDEST DUP3 MSTORE POP POP JUMP JUMPDEST PUSH0 PUSH1 0x20 DUP3 ADD SWAP1 POP PUSH2 0x482 PUSH0 DUP4 ADD DUP5 PUSH2 0x460 JUMP JUMPDEST SWAP3 SWAP2 POP POP JUMP JUMPDEST PUSH0 DUP1 REVERT JUMPDEST PUSH2 0x495 DUP2 PUSH2 0x44F JUMP JUMPDEST DUP2 EQ PUSH2 0x49F JUMPI PUSH0 DUP1 REVERT JUMPDEST POP JUMP JUMPDEST PUSH0 DUP2 CALLDATALOAD SWAP1 POP PUSH2 0x4B0 DUP2 PUSH2 0x48C JUMP JUMPDEST SWAP3 SWAP2 POP POP JUMP JUMPDEST PUSH0 PUSH1 0x20 DUP3 DUP5 SUB SLT ISZERO PUSH2 0x4CB JUMPI PUSH2 0x4CA PUSH2 0x488 JUMP JUMPDEST JUMPDEST PUSH0 PUSH2 0x4D8 DUP5 DUP3 DUP6 ADD PUSH2 0x4A2 JUMP JUMPDEST SWAP2 POP POP SWAP3 SWAP2 POP POP JUMP JUMPDEST PUSH2 0x4EA DUP2 PUSH2 0x3FF JUMP JUMPDEST DUP2 EQ PUSH2 0x4F4 JUMPI PUSH0 DUP1 REVERT JUMPDEST POP JUMP JUMPDEST PUSH0 DUP2 CALLDATALOAD SWAP1 POP PUSH2 0x505 DUP2 PUSH2 0x4E1 JUMP JUMPDEST SWAP3 SWAP2 POP POP JUMP JUMPDEST PUSH0 PUSH1 0x20 DUP3 DUP5 SUB SLT ISZERO PUSH2 0x520 JUMPI PUSH2 0x51F PUSH2 0x488 JUMP JUMPDEST JUMPDEST PUSH0 PUSH2 0x52D DUP5 DUP3 DUP6 ADD PUSH2 0x4F7 JUMP JUMPDEST SWAP2 POP POP SWAP3 SWAP2 POP POP JUMP JUMPDEST PUSH0 DUP3 DUP3 MSTORE PUSH1 0x20 DUP3 ADD SWAP1 POP SWAP3 SWAP2 POP POP JUMP JUMPDEST PUSH32 0x6F6E6C7920746865206F776E65722063616E6E20726573746F636B2074686973 PUSH0 DUP3 ADD MSTORE PUSH32 0x206D616368696E652E0000000000000000000000000000000000000000000000 PUSH1 0x20 DUP3 ADD MSTORE POP JUMP JUMPDEST PUSH0 PUSH2 0x5A0 PUSH1 0x29 DUP4 PUSH2 0x536 JUMP JUMPDEST SWAP2 POP PUSH2 0x5AB DUP3 PUSH2 0x546 JUMP JUMPDEST PUSH1 0x40 DUP3 ADD SWAP1 POP SWAP2 SWAP1 POP JUMP JUMPDEST PUSH0 PUSH1 0x20 DUP3 ADD SWAP1 POP DUP2 DUP2 SUB PUSH0 DUP4 ADD MSTORE PUSH2 0x5CD DUP2 PUSH2 0x594 JUMP JUMPDEST SWAP1 POP SWAP2 SWAP1 POP JUMP JUMPDEST PUSH32 0x4E487B7100000000000000000000000000000000000000000000000000000000 PUSH0 MSTORE PUSH1 0x11 PUSH1 0x4 MSTORE PUSH1 0x24 PUSH0 REVERT JUMPDEST PUSH0 PUSH2 0x60B DUP3 PUSH2 0x3FF JUMP JUMPDEST SWAP2 POP PUSH2 0x616 DUP4 PUSH2 0x3FF JUMP JUMPDEST SWAP3 POP DUP3 DUP3 SUB SWAP1 POP DUP2 DUP2 GT ISZERO PUSH2 0x62E JUMPI PUSH2 0x62D PUSH2 0x5D4 JUMP JUMPDEST JUMPDEST SWAP3 SWAP2 POP POP JUMP JUMPDEST PUSH0 PUSH2 0x63E DUP3 PUSH2 0x3FF JUMP JUMPDEST SWAP2 POP PUSH2 0x649 DUP4 PUSH2 0x3FF JUMP JUMPDEST SWAP3 POP DUP3 DUP3 MUL PUSH2 0x657 DUP2 PUSH2 0x3FF JUMP JUMPDEST SWAP2 POP DUP3 DUP3 DIV DUP5 EQ DUP4 ISZERO OR PUSH2 0x66E JUMPI PUSH2 0x66D PUSH2 0x5D4 JUMP JUMPDEST JUMPDEST POP SWAP3 SWAP2 POP POP JUMP JUMPDEST PUSH32 0x796F75206D75737420706179206174206C656173742032206574686572207065 PUSH0 DUP3 ADD MSTORE PUSH32 0x7220646F6E757400000000000000000000000000000000000000000000000000 PUSH1 0x20 DUP3 ADD MSTORE POP JUMP JUMPDEST PUSH0 PUSH2 0x6CF PUSH1 0x27 DUP4 PUSH2 0x536 JUMP JUMPDEST SWAP2 POP PUSH2 0x6DA DUP3 PUSH2 0x675 JUMP JUMPDEST PUSH1 0x40 DUP3 ADD SWAP1 POP SWAP2 SWAP1 POP JUMP JUMPDEST PUSH0 PUSH1 0x20 DUP3 ADD SWAP1 POP DUP2 DUP2 SUB PUSH0 DUP4 ADD MSTORE PUSH2 0x6FC DUP2 PUSH2 0x6C3 JUMP JUMPDEST SWAP1 POP SWAP2 SWAP1 POP JUMP JUMPDEST PUSH32 0x206E6F7420656E6F75676820646F6E75747320696E2073746F636B2074702066 PUSH0 DUP3 ADD MSTORE PUSH32 0x756C66696C6C2070757263686173652072657175657374000000000000000000 PUSH1 0x20 DUP3 ADD MSTORE POP JUMP JUMPDEST PUSH0 PUSH2 0x75D PUSH1 0x37 DUP4 PUSH2 0x536 JUMP JUMPDEST SWAP2 POP PUSH2 0x768 DUP3 PUSH2 0x703 JUMP JUMPDEST PUSH1 0x40 DUP3 ADD SWAP1 POP SWAP2 SWAP1 POP JUMP JUMPDEST PUSH0 PUSH1 0x20 DUP3 ADD SWAP1 POP DUP2 DUP2 SUB PUSH0 DUP4 ADD MSTORE PUSH2 0x78A DUP2 PUSH2 0x751 JUMP JUMPDEST SWAP1 POP SWAP2 SWAP1 POP JUMP JUMPDEST PUSH0 PUSH2 0x79B DUP3 PUSH2 0x3FF JUMP JUMPDEST SWAP2 POP PUSH2 0x7A6 DUP4 PUSH2 0x3FF JUMP JUMPDEST SWAP3 POP DUP3 DUP3 ADD SWAP1 POP DUP1 DUP3 GT ISZERO PUSH2 0x7BE JUMPI PUSH2 0x7BD PUSH2 0x5D4 JUMP JUMPDEST JUMPDEST SWAP3 SWAP2 POP POP JUMP INVALID LOG2 PUSH5 0x6970667358 0x22 SLT KECCAK256 DUP1 PUSH17 0x7F55CC2A3A80A1AA85D581101D4D67EF59 0xDA SWAP4 0x2E 0xD1 0xB5 DUP1 0xD3 SWAP10 KECCAK256 PUSH7 0x277F6164736F6C PUSH4 0x43000816 STOP CALLER "
				},
				"gasEstimates": {
					"creation": {
						"codeDepositCost": "408400",
						"executionCost": "46907",
						"totalCost": "455307"
					},
					"external": {
						"donutBalances(address)": "2824",
						"getvendingmachinebalance()": "2497",
						"owner()": "2505",
						"purchase(uint256)": "infinite",
						"restock(uint256)": "infinite"
					}
				},
				"methodIdentifiers": {
					"donutBalances(address)": "9a020d8a",
					"getvendingmachinebalance()": "4095d77d",
					"owner()": "8da5cb5b",
					"purchase(uint256)": "efef39a1",
					"restock(uint256)": "c21a702a"
				}
			},
			"storageLayout": {
				"storage": [
					{
						"astId": 3,
						"contract": "contracts/vending_machine.sol:vendingmachine",
						"label": "owner",
						"offset": 0,
						"slot": "0",
						"type": "t_address"
					},
					{
						"astId": 7,
						"contract": "contracts/vending_machine.sol:vendingmachine",
						"label": "donutBalances",
						"offset": 0,
						"slot": "1",
						"type": "t_mapping(t_address,t_uint256)"
					}
				],
				"types": {
					"t_address": {
						"encoding": "inplace",
						"label": "address",
						"numberOfBytes": "20"
					},
					"t_mapping(t_address,t_uint256)": {
						"encoding": "mapping",
						"key": "t_address",
						"label": "mapping(address => uint256)",
						"numberOfBytes": "32",
						"value": "t_uint256"
					},
					"t_uint256": {
						"encoding": "inplace",
						"label": "uint256",
						"numberOfBytes": "32"
					}
				}
			},
			"userdoc": {
				"kind": "user",
				"methods": {},
				"version": 1
			}
		}
	}
}